:020000040800F2
:10000000A09C002095020008BD660008E9390008A0
:100010000D590008B10900085578000800000000DB
:10002000000000000000000000000000116F000848
:10003000D50B0008000000003167000819700008A7
:10004000AF020008AF020008AF020008AF020008CC
:10005000AF020008AF020008AF020008AF020008BC
:10006000AF020008AF020008AF020008AF020008AC
:10007000AF020008AF020008B5090008C509000872
:10008000D5090008AF020008AF020008AF0200085F
:10009000AF020008AF020008AF020008AF0200087C
:1000A000AF020008AF020008AF020008AF0200086C
:1000B000AF02000809710008AF020008AF02000893
:1000C000AF020008AF020008AF020008AF0200084C
:1000D000DD6C0008AF020008AF020008AF020008A4
:1000E000AF020008AF020008AF020008AF0200082C
:1000F000AF02000819710008AF020008AF02000843
:10010000AF020008AF020008AF020008AF0200080B
:10011000AF020008AF020008AF020008AF020008FB
:10012000AF020008AF020008AF020008AF020008EB
:10013000AF0200080000000000000000AF0200084D
:10014000AF020008AF020008AF020008AF020008CB
:10015000AF020008AF020008AF020008AF020008BB
:10016000AF020008AF020008AF020008AF020008AB
:10017000AF020008AF02000800000000000000000D
:10018000AF020008AF02000800F002F800F072F8B9
:1001900014A696E8000CB244B344DA4501D100F04D
:1001A00069F8BAE80F000FA696E83000A5EB040541
:1001B00004EB0607AAEB0704A7F101074FEA1515A0
:1001C0004FEA3414A4F10104AC4201D300F052F818
:1001D00013F0010F18BFFB1A43F0010300F001F800
:1001E000DBE7184788D80000A8D800000A444FF081
:1001F000000C10F8013B13F0070408BF10F8014B86
:100200001D1108BF10F8015B641E05D010F8016BCA
:10021000641E01F8016BF9D113F0080F1EBF10F82E
:10022000014BAD1C0C1B09D16D1E58BF01F801CB51
:10023000FAD505E014F8016B01F8016B6D1EF9D5D4
:100240009142D6D37047000070470000002300247D
:1002500000250026103A28BF78C1FBD8520728BFD6
:1002600030C148BF0B6070471FB50CF036FF1FBD93
:1002700010B510BD00F084F91146FFF7F5FF08F046
:1002800079FF00F0A2F903B4FFF7F2FF03BC00F01E
:10029000A5F900000948804709480047FEE7FEE746
:1002A000FEE7FEE7FEE7FEE7FEE7FEE7FEE7FEE726
:1002B00004480549054A064B70470000F5700008E0
:1002C00089010008A0960020A09C0020A098002092
:1002D000A098002053EA020C00F069802DE9F04B51
:1002E0004FF00006002B1FBFB3FA83F503FA05F4A5
:1002F00024FA05F65E4012BF1643B2FA82F502FAFE
:1003000005F4C5F120051EBF22FA05FC44EA0C04E1
:10031000203556EA044C4FEA144418BF641C4FF0D1
:1003200000084FF00009904271EB030C39D300290B
:1003300019BFB1FA81F701FA07F6B0FA80F700FAAF
:1003400007F6C7F120071EBF20FA07FC46EA0C0695
:100350002037B6FBF4FCA7EB0507103F07F01F0B97
:10036000CBF120062CFA06F60CFA0BFB44BFB34681
:100370000026202FA4BF5E464FF0000B5BEA060C60
:1003800008BF4FF0010B19EB0B0948EB0608ABFB5C
:10039000027C06FB02CC0BFB03CCC01B71EB0C01F7
:1003A000C1E70B46024641464846BDE8F08B13B50F
:1003B000084318BF4FF0FF300146AFF30080BDE89F
:1003C0001C407047032A40F2308010F0030C00F00C
:1003D000158011F8013BBCF1020F624498BF11F87F
:1003E00001CB00F8013B38BF11F8013BA2F1040238
:1003F00098BF00F801CB38BF00F8013B11F00303B0
:1004000000F02580083AC0F0088051F8043B083A13
:1004100051F804CBA0E80810F5E7121D5CBF51F8B5
:10042000043B40F8043BAFF30080D20724BF11F82F
:10043000013B11F801CB48BF11F8012B24BF00F894
:10044000013B00F801CB48BF00F8012B704710B505
:10045000203AC0F00B80B1E81850A0E81850B1E87D
:100460001850A0E81850203ABFF4F5AF5FEA027CBC
:1004700024BFB1E81850A0E8185044BF18C918C0EC
:10048000BDE810405FEA827C24BF51F8043B40F88D
:10049000043B08BF7047D20728BF31F8023B48BF72
:1004A00011F8012B28BF20F8023B48BF00F8012BB0
:1004B000704702F0FF0343EA032242EA024200F0DF
:1004C00024B84FF000020429C0F0128010F0030C91
:1004D00000F01B80CCF1040CBCF1020F18BF00F837
:1004E000012BA8BF20F8022BA1EB0C0100F00DB8E6
:1004F0005FEAC17C24BF00F8012B00F8012B48BF44
:1005000000F8012B70474FF0000200B513469446E7
:100510009646203922BFA0E80C50A0E80C50B1F15B
:100520002001BFF4F7AF090728BFA0E80C5048BF6F
:100530000CC05DF804EB890028BF40F8042B08BF0D
:10054000704748BF20F8022B11F0804F18BF00F809
:10055000012B704770477047704710B500F008F8DE
:10056000006810BD10B5044600F002F8046010BD2C
:1005700000487047380200200048704738020020C9
:100580007546FFF7F9FFAE4605006946534620F071
:100590000700854618B020B5FFF78AFEBDE8204069
:1005A0004FF000064FF000074FF000084FF0000B2F
:1005B000AC46ACE8C009ACE8C009ACE8C009ACE89E
:1005C000C00921F007018D46704710B50446AFF30E
:1005D00000802046BDE81040FFF755BE01491820B5
:1005E000ABBEFEE7260002007047000080B5002089
:1005F000C4F202004FF48051012201F083F880BD63
:1006000080B50020C4F202004FF48051002201F0B6
:1006100079F880BD7047000080B540F60040C4F214
:1006200002000421012201F06DF880BD80B540F682
:100630000040C4F202000421002201F063F880BDF2
:100640007047000080B582B0ADF80600FFE7BDF846
:100650000600411EADF8061028B1FFE74FF47A708E
:1006600000F004F8F3E702B080BD000086B0ADF8FA
:1006700016000020049003900290019000904EF22A
:100680001400CEF2000000680090BDF81600A8210A
:10069000484304904EF21800CEF200000068039028
:1006A000FFE74EF21800CEF20000006802900298B8
:1006B000039988421ED0FFE702980399884207D227
:1006C000FFE703980299411A01980844019008E055
:1006D00000980299401A0399014401980844019036
:1006E000FFE70298039001980499884201D3FFE73D
:1006F00001E0FFE7D5E706B07047000080B582B0A3
:1007000000208DF80700FFF785FFFFF799FF08F03D
:1007100091F801469DF8070008438DF8070008F09E
:1007200051F901469DF8070008438DF807009DF830
:10073000070002B080BD000080B588B00790069128
:1007400005920020009004900390FFF759FF92203B
:1007500000F006F9122003A90191062200F0CCF85E
:10076000FFF744FF9DF80C009DF80D1040EA0120B2
:10077000ADF80A00BDF90A0000EE100AB8EEC00A92
:1007800040F20000C2F2000090ED001A20EE010AD3
:10079000069981ED000A9DF80E109DF80F2041EAA0
:1007A0000221ADF80A10BDF90A1000EE101AB8EED9
:1007B000C00A90ED001A20EE010A069981ED010AA7
:1007C0009DF810109DF8112041EA0221ADF80A10A1
:1007D000BDF90A1000EE101AB8EEC00A90ED001A2A
:1007E00020EE010A069880ED020AFFF71FFF00982D
:1007F0000199082200F080F8FFF70EFF9DF80C0029
:100800000F2844D1FFE79DF80E009DF80F1040EA35
:100810000120ADF80A00BDF90A0000EE100AB8EE9A
:10082000C00A40F20400C2F2000090ED001A20EE6F
:10083000010A079981ED000A9DF810109DF811201A
:1008400041EA0221ADF80A10BDF90A1000EE101AB3
:10085000B8EEC00A90ED001A20EE010A079981ED6A
:10086000010A9DF812109DF8132041EA0221ADF80B
:100870000A10BDF90A1000EE101AB8EEC00A90ED89
:10088000001A20EE010A079880ED020AFFE7FFF741
:10089000B7FEA22000F064F8222003A9022200F093
:1008A0002BF8FFF7A3FE9DF80C009DF80D10C0007B
:1008B00040EA5110ADF80A00BDF90A00B0F5806FAA
:1008C00007DBFFE7BDF80A00A0F50060ADF80A00FD
:1008D000FFE7BDF90A0000EE100AB8EEC00AB4EE58
:1008E000001A20EE010AB3EE071A30EE010A05984D
:1008F00080ED000A08B080BD80B584B08DF80F008F
:1009000002918DF807209DF80F0040F0800000F064
:1009100027F8FFE79DF8070070B1FFE7552000F0CA
:100920001FF8029908700298013002909DF80700A4
:1009300001388DF80700EDE704B080BD80B582B0C6
:100940008DF8070000919DF8070040F0800000F04E
:1009500007F8552000F004F80099087002B080BD37
:1009600080B582B08DF8070069464FF47A70086050
:1009700040F2C860C2F200000DF107010DF106025D
:10098000012301F089FF9DF8060002B080BD000040
:1009900080B582B08DF807008DF806109DF807002D
:1009A000FFF7DEFF9DF80600FFF7DAFF02B080BD1B
:1009B000FFE7FEE780B540F2A850C2F2000000F069
:1009C0001BFA80BD80B540F20860C2F2000000F062
:1009D00013FA80BD80B540F26860C2F2000000F0FA
:1009E0000BFA80BD80B582B00190019B5A6898686F
:1009F00099891B8802F02CFD02B080BD80B540F2C1
:100A00000800C2F20000FFF7EDFF80BD82B0019048
:100A10000198007810384AF6AB21CAF6AA21A0FB4B
:100A200001100009009000994DF23810C0F6000046
:100A3000405C0199C8650098042807D3FFE7019935
:100A40000868042262F30900886506E001990868D5
:100A500040F2FF3290438865FFE70198806D02B055
:100A60007047000086B0059000208DF813000598AF
:100A7000806A03900598806910BBFFE70398029095
:100A800003281BD80299DFE801F0020D021805982F
:100A900090F82F00C00720B1FFE701208DF8130068
:100AA000FFE70CE00598C06AB0F1C07F04D1FFE712
:100AB00001208DF81300FFE701E000E0FFE745E0CB
:100AC00005988069B0F5005F25D1FFE70398019094
:100AD00003281ED80199DFE801F002060211012067
:100AE0008DF8130016E0059890F82F00C00720B18C
:100AF000FFE701208DF81300FFE70BE00598C06ABF
:100B0000B0F1C07F04D1FFE701208DF81300FFE7AB
:100B100000E0FFE719E003980090032804D3FFE703
:100B20000098032804D00EE001208DF813000BE09C
:100B3000059890F82F00C00720B1FFE701208DF83D
:100B40001300FFE700E0FFE7FFE7FFE79DF8130072
:100B500006B0704784B0039002910192009303980D
:100B60000168086820F480200860009803990968EB
:100B7000486003988068402809D1FFE701980399ED
:100B800009688860029803990968C86008E00298BB
:100B9000039909688860019803990968C860FFE7AC
:100BA00004B070474EF6FC51CEF20001086840F0E8
:100BB0008070086041F20401CEF20001002008605C
:100BC00041F20001CEF20001086840F00100086027
:100BD000704700007047000072B6FFE7FEE70000B4
:100BE00080B588B08DED070ACDED060A8DED051AAA
:100BF000CDED041A8DED032ACDED022A8DED013ADB
:100C0000009040F2AC20C2F200000078D8B9FFE7B3
:100C1000009840F2B021C2F2000108609DED012A67
:100C2000B2EE040ADFED600A9FED601AF7EE001ADB
:100C3000DFED5F2A02F0F2FF40F2AC21C2F20001C8
:100C400002200870FFE740F2AC20C2F200000078FA
:100C500001285AD1FFE79DED041A40F21800C2F2B4
:100C6000000090ED000A30EE010A80ED000A9DEDD3
:100C7000031A90ED010A30EE010A80ED010A9DEDA4
:100C8000021A90ED020A30EE010A80ED020A40F2EB
:100C9000B420C2F20000016801310160006840F236
:100CA000B021C2F20001096888422DD3FFE740F26B
:100CB000B021C2F2000191ED000AB8EE401A40F2F4
:100CC0001800C2F2000090ED000A80EE010A80EDEB
:100CD000000A91ED000AB8EE401A90ED010A80EE8C
:100CE000010A80ED010A91ED000AB8EE401A90ED7C
:100CF000020A80EE010A80ED020A40F2AC21C2F243
:100D0000000102200870FFE7FFE740F2AC20C2F2CA
:100D100000000078022844D1FFE740F21800C2F238
:100D2000000090ED001A9DED040A30EE410A8DEDB1
:100D3000040A90ED011A9DED030A30EE410A8DED93
:100D4000030A90ED021A9DED020A30EE410A8DED84
:100D5000020A9DED040ADDED030A9DED021ADDEDA8
:100D6000071A9DED062ADDED052A03F09DF840F2F5
:100D70008030C2F20000D0F8A01145F2A822C2F2E1
:100D800000021160D0F8A41142F2B472C2F2000263
:100D90001160D0F8A80149F29861C2F20001086020
:100DA000FFE708B080BD00BF6F12833A8096184BF2
:100DB0000000000082B00090009890F835000228F2
:100DC00007D0FFE700998020486501208DF80700D3
:100DD0000EE00099052081F8350000980168086848
:100DE00020F001000860FFE700208DF80700FFE712
:100DF0009DF8070002B0704780B586B005900020CE
:100E0000039040F2EC10C2F20000006848F2B51105
:100E1000C1F64E31A0FB0110800A02900598806D4A
:100E2000019001980068049004980599C96DC84024
:100E3000000700281AD5FFE70598006800684007FA
:100E4000002812D5FFE705980168086820F0040023
:100E500008600598C16D082088400199886005994F
:100E6000486D40F001004865FFE7FFE704980599E9
:100E7000C96DC840C007A0B1FFE705980068406988
:100E8000000600280CD5FFE70598C16D01208840B9
:100E9000019988600599486D40F002004865FFE7B8
:100EA000FFE704980599C96DC8404007002814D58C
:100EB000FFE7059800680068800700280CD5FFE769
:100EC0000598C16D04208840019988600599486D96
:100ED00040F004004865FFE7FFE704980599C96DF5
:100EE000C840C006002847D5FFE70598006800689D
:100EF000000700283FD5FFE70598C16D1020884006
:100F000001998860059800680068400300281AD598
:100F1000FFE70598006800680003002809D4FFE790
:100F20000598006C20B1FFE70598016C8847FFE742
:100F300008E00598806C20B1FFE70598816C884730
:100F4000FFE7FFE716E0059800680068C005002885
:100F500007D4FFE705980168086820F008000860DA
:100F6000FFE70598006C20B1FFE70598016C884702
:100F7000FFE7FFE7FFE7FFE704980599C96DC84061
:100F80008006002840F18D80FFE705980068006822
:100F9000C006002840F18480FFE70598C16D20203D
:100FA000884001998860059890F83500052834D16B
:100FB000FFE705980168086820F0160008600598AA
:100FC0000168486920F0800048610598006C20B9EC
:100FD000FFE70598806C38B1FFE70598016808685D
:100FE00020F008000860FFE70598C16D3F208840A9
:100FF000019988600599012081F83500FFE705997E
:10100000002081F83400FFE70598006D20B1FFE76C
:101010000598016D8847FFE77BE005980068006848
:10102000400300281AD5FFE7059800680068000310
:10103000002809D4FFE70598406C20B1FFE7059828
:10104000416C8847FFE708E00598C06B20B1FFE7D7
:101050000598C16B8847FFE7FFE720E00598006827
:101060000068C005002811D4FFE7059801680868EA
:1010700020F0100008600599012081F83500FFE795
:101080000599002081F83400FFE7FFE70598C06B61
:1010900020B1FFE70598C16B8847FFE7FFE7FFE74F
:1010A000FFE70598406DA0B3FFE70598406DC007C6
:1010B00030B3FFE70599052081F8350005980168F0
:1010C000086820F001000860FFE7039801300390F2
:1010D0000299884201D9FFE707E0FFE70598006819
:1010E0000068C0070028F0D1FFE70599012081F8CA
:1010F0003500FFE70599002081F83400FFE7FFE79E
:101100000598C06C20B1FFE70598C16C8847FFE7E0
:10111000FFE706B080BD000080B586B004900020D7
:10112000039000F007FB0290049820B9FFE701202C
:101130008DF81700A3E00498406A08B1FFE7FFE7C5
:101140000499022081F83500FFE70499002081F816
:101150003400FFE704980168086820F00100086087
:10116000FFE7049800680068C00790B1FFE700F04F
:10117000E1FA0299401A06280AD3FFE704992020D1
:1011800048650499032081F835008DF8170076E052
:10119000E7E70498006800680390039848F23F016D
:1011A000CFF2100108400390049900914868D1F8EB
:1011B00008C0CB680A6940EA0C00184310434A692A
:1011C00010438A691043CA691043096A01430398AE
:1011D000084303900498406A042808D1FFE7049963
:1011E000C86A096B0143039808430390FFE703981B
:1011F000049909680860049800684069039003989E
:1012000020F0070003900498416A03980843039074
:101210000498406A04281AD1FFE70498816A039869
:10122000084303900498C06A80B1FFE70498FFF771
:1012300019FC50B1FFE7049940204865049901204A
:1012400081F835008DF8170019E0FFE7FFE70398F4
:101250000499096848610498FFF7D8FB0190049845
:10126000C16D3F208840019988600499002048653D
:10127000049A012182F835108DF81700FFE79DF8D8
:10128000170006B080BD000080B588B006900591BB
:101290000492039300208DF80B000698806D019056
:1012A000FFE7069890F83400012804D1FFE70220F8
:1012B0008DF81F0045E00699012081F83400FFE712
:1012C000FFE7069890F8350001282BD1FFE7069933
:1012D000022081F835000699002048650698059996
:1012E000049A039BFFF736FC0698C16D3F208840A7
:1012F0000199886006980168086840F01600086047
:101300000698006C38B1FFE706980168086840F05D
:1013100008000860FFE706980168086840F00100CF
:10132000086009E0FFE70699002081F83400FFE734
:1013300002208DF80B00FFE79DF80B008DF81F00D1
:10134000FFE79DF81F0008B080BD00008EB00D9033
:101350000C9100200A90099008900B90FFE70B98E1
:101360000F2800F2CC81FFE70B99012088400A90FA
:101370000C9800680A990840099009980A998842CF
:1013800040F0B881FFE70C98406800F003000128A6
:1013900007D0FFE70C98406800F0030002282FD127
:1013A000FFE70D98806808900B984100032000FA31
:1013B00001F10898884308900C98C0680B9949007F
:1013C00000FA01F108980843089008980D99886080
:1013D0000D98406808900B99012000FA01F10898D7
:1013E000884308900C984068C0F300100B9900FAED
:1013F00001F108980843089008980D994860FFE7A4
:101400000C98406800F00300032818D0FFE70D98FF
:10141000C06808900B984100032000FA01F1089879
:10142000884308900C9880680B99490000FA01F1F4
:1014300008980843089008980D99C860FFE70C9831
:10144000406800F00300022826D1FFE70D980B99B1
:101450006FF0030202EA51010844006A08900B98F9
:1014600000F0070081000F2000FA01F1089888437E
:1014700008900C9800690B9901F00701890000FAA7
:1014800001F108980843089008980D990B9B02EA0F
:10149000530211440862FFE70D98006808900B980A
:1014A0004100032000FA01F10898884308900C9845
:1014B000406800F003000B99490000FA01F1089818
:1014C0000843089008980D9908600C988079800767
:1014D000002800F00E81FFE7FFE70020079043F6A9
:1014E0004400C4F20200016841F4804101600068D8
:1014F00000F4804007900798FFE70B9820F0030066
:1015000043F60801C4F20101405808900B9800F01E
:10151000030081000F2000FA01F108988843089029
:101520000D980021C4F20201884203D1FFE7002098
:1015300006905EE00D9840F20041C4F2020188423C
:1015400003D1FFE70120059050E00D9840F600011F
:10155000C4F20201884203D1FFE70220049042E076
:101560000D9840F60041C4F20201884203D1FFE722
:101570000320039034E00D9841F20001C4F202010F
:10158000884203D1FFE70420029026E00D9841F243
:101590000041C4F20201884203D1FFE70520019017
:1015A00018E00D9841F60001C4F20201884203D10F
:1015B000FFE7062000900AE00D9941F60042C4F2D0
:1015C00002020820914208BF07200090FFE7009820
:1015D0000190FFE701980290FFE702980390FFE770
:1015E00003980490FFE704980590FFE7059806909C
:1015F000FFE70698C0B20B9901F00301890000FAD9
:1016000001F108980843089008980B9921F003010C
:1016100043F60802C4F20102885043F60840C4F2BF
:1016200001000068089009990898884308900C9870
:101630008079C006002805D5FFE709990898084376
:101640000890FFE7089843F60841C4F201010860DA
:1016500043F60C40C4F2010000680890099908980C
:10166000884308900C9880798006002805D5FFE70C
:101670000999089808430890FFE7089843F60C4139
:10168000C4F20101086043F60440C4F2010000689E
:10169000089009990898884308900C9880798007E9
:1016A000002805D5FFE70999089808430890FFE747
:1016B000089843F60441C4F20101086043F6004073
:1016C000C4F20100006808900999089888430890BE
:1016D0000C988079C00728B1FFE70999089808435A
:1016E0000890FFE7089843F60041C4F20101086042
:1016F000FFE7FFE7FFE70B9801300B902FE60EB0F6
:101700007047000082B00190ADF802108DF8012002
:101710009DF8010028B1FFE7BDF80200019988613A
:1017200005E0BDF80200000401998861FFE702B0FE
:101730007047000048F6BC60C2F2000000687047C5
:1017400040F20420C2F20000027848F6BC61C2F206
:1017500000010868104408607047000080B543F637
:101760000041C4F20201086840F400700860086893
:1017700040F480600860086840F4807008600320CE
:1017800000F0D0F80F2000F005F800F07BF8002002
:1017900080BD000080B58CB00B90002004900390B9
:1017A000FFE70020009043F64000C4F20200016809
:1017B00041F480710160006800F48070009000982E
:1017C000FFE706A802A900F0E7F909980490049839
:1017D00020B9FFE700F010FA059004E000F00CFAE1
:1017E00040000590FFE705984DF68361C4F21B3178
:1017F000A0FB01014FF0FF3000EB9140039040F25D
:101800002070C2F2000042F20001C4F20001016047
:1018100040F2E731C16003994160002101618160BC
:10182000816101F0A5FA8DF807009DF8070028BB3B
:10183000FFE740F22070C2F2000001F0EBFA8DF8F1
:1018400007009DF80700C0B9FFE72D2000F046F81B
:101850000B980F280CD8FFE70B992D20002200F0E1
:1018600047F80B9840F20821C2F20001086003E03B
:1018700001208DF80700FFE7FFE7FFE79DF807006D
:101880000CB080BD80B582B0FFE70020019043F628
:101890004400C4F20200016841F480410160006824
:1018A00000F4804001900198FFE7FFE700200090DE
:1018B00043F64000C4F20200016841F0805101602B
:1018C000006800F0805000900098FFE76FF0010082
:1018D0000F21002200F00CF802B080BD80B582B06C
:1018E0008DF807009DF9070005F0F8FF02B080BDF4
:1018F00080B586B08DF81700049103920020029005
:1019000006F004F802909DF91700019002980499DE
:10191000039A04F0D5FE0146019805F0FFFF06B0DA
:1019200080BD000080B582B00190019806F03AF8C1
:1019300002B080BD80B584B002900191029820B9B8
:10194000FFE701208DF80F0021E1019843F60041E7
:10195000C4F20201096801F00701884212D9FFE7C9
:10196000019943F60040C4F202000170006800F0E3
:1019700007000199884204D0FFE701208DF80F008D
:1019800005E1FFE702980078800700282AD5FFE7E5
:10199000029800784007002809D5FFE743F60801C0
:1019A000C4F20201086840F4E0500860FFE70298C2
:1019B00000780007002809D5FFE743F60801C4F2C4
:1019C0000201086840F460400860FFE743F6080140
:1019D000C4F20201086820F0F000029A92681043F5
:1019E0000860FFE702980078C00700286ED0FFE784
:1019F00002984068012811D1FFE743F60000C4F2C5
:101A00000200006800F400310020B0EB514F04D117
:101A1000FFE701208DF80F00B9E02CE00298406844
:101A2000022805D0FFE702984068032811D1FFE79C
:101A300043F60000C4F20200006800F000710020CC
:101A4000B0EB516F04D1FFE701208DF80F009EE04D
:101A500010E043F60000C4F20200006800F002014A
:101A60000020B0EB510F04D1FFE701208DF80F00EB
:101A70008DE0FFE7FFE743F60801C4F202010868C2
:101A800020F00300029A526810430860FFF752FEEC
:101A90000090FFE743F60800C4F20200006800F07F
:101AA0000C0002994968B0EB810F0ED0FFE7FFF7F9
:101AB00041FE0099401A41F28931884204D3FFE780
:101AC00003208DF80F0062E0E4E7FFE7019843F69A
:101AD0000041C4F20201096801F00701884212D2F4
:101AE000FFE7019943F60040C4F20200017000686C
:101AF00000F007000199884204D0FFE701208DF82B
:101B00000F0044E0FFE702980078400700280CD55A
:101B1000FFE743F60801C4F20201086820F4E05030
:101B2000029AD26810430860FFE702980078000725
:101B300000280DD5FFE743F60801C4F2020108684A
:101B400020F46040029A126940EAC2000860FFE790
:101B500000F064F843F60801C4F202010968C9B252
:101B60000A094DF22011C0F60001895CC84040F21C
:101B7000EC11C2F20001086040F20820C2F200003D
:101B80000068FFF707FE00208DF80F00FFE79DF8C3
:101B90000F0004B080BD000082B001900091019957
:101BA0000F20086043F60800C4F20200016801F04B
:101BB0000301019A5160016801F0F001019A9160FE
:101BC000016801F4E051019AD160006800F46040BE
:101BD000C0080199086143F60040C4F202000068A1
:101BE00000F007000099086002B0704740F2EC1066
:101BF000C2F200000068704780B5FFF7F7FF43F6B8
:101C00000801C4F202010968C1F382224DF23011C9
:101C1000C0F60001895CC84080BD000080B586B078
:101C20000020059004900390029043F60800C4F24F
:101C30000200006800F00C000146019140B1FFE78E
:101C4000019804280AD0FFE7019808280CD04FE03B
:101C500042F20040C0F2F40002904FE041F2002056
:101C6000C0F27A00029049E043F60400C4F2020098
:101C7000016801F03F01059100684002002813D57A
:101C8000FFE743F60400C4F202000068C0F38810C6
:101C900041F20021C0F27A01A0FB0101059A002364
:101CA000FEF718FB049012E043F60400C4F20200B1
:101CB0000068C0F3881042F20041C0F2F401A0FBBA
:101CC0000101059A0023FEF705FB0490FFE743F6A8
:101CD0000400C4F20200006800F44031022000EB6E
:101CE000D130039004980399B0FBF1F0029005E025
:101CF00042F20040C0F2F4000290FFE7029806B002
:101D000080BD000080B586B00490049820B9FFE73C
:101D100001208DF8170050E304980078C0070028D0
:101D200000F0A580FFE743F60800C4F20200006857
:101D300000F00C00042813D0FFE743F60800C4F2BB
:101D40000200006800F00C0008281ED1FFE743F6EF
:101D50000400C4F2020000684002002815D5FFE725
:101D600043F60000C4F20200006800F400310020D5
:101D7000B0EB514F08D0FFE70498406820B9FFE767
:101D800001208DF8170018E370E0FFE70498406821
:101D9000B0F5803F09D1FFE743F60001C4F202012C
:101DA000086840F48030086020E004984068B0F58E
:101DB000A02F0DD1FFE743F60001C4F2020108682D
:101DC00040F480200860086840F4803008600CE02F
:101DD00043F60001C4F20201086820F48030086074
:101DE000086820F480200860FFE7FFE7FFE7049819
:101DF0004068E8B1FFE7FFF79DFC0390FFE743F67B
:101E00000000C4F20200006800F400310020B0EBD2
:101E1000514F0CD1FFE7FFF78DFC0399401A65285D
:101E200004D3FFE703208DF81700C6E2E7E71CE0C4
:101E3000FFF780FC0390FFE743F60000C4F20200C6
:101E4000006800F400310020B0EB514F0CD0FFE7E8
:101E5000FFF770FC0399401A652804D3FFE70320BD
:101E60008DF81700A9E2E7E7FFE7FFE7FFE704982F
:101E700000788007002840F19680FFE743F60800CD
:101E8000C4F20200006810F00C0F13D0FFE743F615
:101E90000800C4F20200006800F00C0008282CD1F1
:101EA000FFE743F60400C4F2020000684002002885
:101EB00023D4FFE743F60000C4F20200006800F0FC
:101EC00002010020B0EB510F09D0FFE70498C06871
:101ED000012804D0FFE701208DF817006DE243F6DA
:101EE0000001C4F20201086820F0F800049A1269A7
:101EF00040EAC2000860FFE754E00498C06870B38D
:101F0000FFE70021C4F2472101200860FFF712FC1F
:101F10000390FFE743F60000C4F20200006800F0FF
:101F200002010020B0EB510F0CD1FFE7FFF702FCDC
:101F30000399401A032804D3FFE703208DF8170004
:101F40003BE2E7E743F60001C4F20201086820F033
:101F5000F800049A126940EAC200086021E00021FA
:101F6000C4F2472100200860FFF7E4FB0390FFE77D
:101F700043F60000C4F20200006800F002010020F5
:101F8000B0EB510F0CD0FFE7FFF7D4FB0399401AD9
:101F9000032804D3FFE703208DF817000DE2E7E7DD
:101FA000FFE7FFE7FFE704980078000700284BD51C
:101FB000FFE70498406918B3FFE740F68061C4F278
:101FC000472101200860FFF7B5FB0390FFE743F6C8
:101FD0007400C4F20200006800F002010020B0EBBF
:101FE000510F0CD1FFE7FFF7A5FB0399401A032817
:101FF00004D3FFE703208DF81700DEE1E7E722E0D6
:1020000040F68061C4F2472100200860FFF792FB90
:102010000390FFE743F67400C4F20200006800F08A
:1020200002010020B0EB510F0CD0FFE7FFF782FB5D
:102030000399401A032804D3FFE703208DF8170003
:10204000BBE1E7E7FFE7FFE70498007840070028D7
:1020500040F1CE80FFE700208DF8070043F64000F6
:10206000C4F202000068C000002815D4FFE7FFE7B3
:102070000020009043F64000C4F20200016841F0E5
:1020800080510160006800F0805000900098FFE7E8
:1020900001208DF80700FFE747F20000C4F20000BE
:1020A0000068C005002822D4FFE747F20001C4F20F
:1020B0000001086840F480700860FFF73BFB039064
:1020C000FFE747F20000C4F200000068C0050028E6
:1020D0000CD4FFE7FFF72EFB0399401A032804D323
:1020E000FFE703208DF8170067E1EAE7FFE7FFE766
:1020F00004988068012809D1FFE743F67001C4F213
:102100000201086840F0010008601FE00498806840
:1021100005280DD1FFE743F67001C4F202010868FB
:1021200040F004000860086840F0010008600CE01E
:1021300043F67001C4F20201086820F00100086053
:10214000086820F004000860FFE7FFE7FFE7049855
:102150008068F8B1FFE7FFF7EDFA0390FFE743F679
:102160007000C4F20200006800F002010020B0EB31
:10217000510F0ED1FFE7FFF7DDFA0399401A41F244
:102180008931884204D3FFE703208DF8170014E15A
:10219000E5E71EE0FFF7CEFA0390FFE743F6700095
:1021A000C4F20200006800F002010020B0EB510F01
:1021B0000ED0FFE7FFF7BEFA0399401A41F28931CA
:1021C000884204D3FFE703208DF81700F5E0E5E728
:1021D000FFE79DF80700012809D1FFE743F640011A
:1021E000C4F20201086820F080500860FFE7FFE7B2
:1021F00004988069002800F0DC80FFE743F60800BF
:10220000C4F20200006800F00C00082800F085808D
:10221000FFE70498806902285CD1FFE76021C4F2DF
:10222000472100200860FFF785FA0390FFE743F697
:102230000000C4F20200006800F000710020B0EB62
:10224000516F0CD0FFE7FFF775FA0399401A032886
:1022500004D3FFE703208DF81700AEE0E7E7049909
:10226000C869D1F820C04B6A8A6A40EA0C0040EA8B
:102270008310D2034FF6FF739A43A2F580321043C6
:10228000C96A40EA016043F60401C4F20201086031
:102290006021C4F2472101200860FFF74BFA039048
:1022A000FFE743F60000C4F20200006800F000718E
:1022B0000020B0EB516F0CD1FFE7FFF73BFA039919
:1022C000401A032804D3FFE703208DF8170074E0B9
:1022D000E7E721E06021C4F2472100200860FFF712
:1022E00029FA0390FFE743F60000C4F202000068F9
:1022F00000F000710020B0EB516F0CD0FFE7FFF74A
:1023000019FA0399401A032804D3FFE703208DF834
:10231000170052E0E7E7FFE74AE0049880690128E8
:1023200004D1FFE701208DF8170046E043F60400D2
:10233000C4F202000068029004988069012831D03C
:10234000FFE7029800F480000499C969884229D106
:10235000FFE7029800F03F000499096A884221D102
:10236000FFE7029847F6C07108400499496AB0EB4C
:10237000811F17D1FFE7029800F440300499896A61
:10238000C9034FF6FF729143A1F58031884209D10C
:10239000FFE7029800F070600499C96AB0EB016F22
:1023A00004D0FFE701208DF8170006E0FFE7FFE704
:1023B000FFE700208DF81700FFE79DF8170006B033
:1023C00080BD000081B0009001B0704780B588B03A
:1023D0000790079800684068069007980068806832
:1023E00005909DF8140000F040010020B0EB911F13
:1023F00011D1FFE70598C00768B1FFE79DF8180005
:1024000000F040010020B0EB911F04D0FFE70798D7
:10241000016C8847F0E09DF8140000F002010020F4
:10242000B0EB510F0BD0FFE79DF818100020B0EB78
:10243000D11F04D0FFE70798416C8847DCE09DF886
:10244000140000F020010020B0EB511F10D1FFE775
:102450009DF8140000F040010020B0EB911F07D15F
:10246000FFE79DF81500C007002800F0C580FFE7D2
:102470009DF8180000F020010020B0EB511F00F083
:10248000BB80FFE79DF8140000F040010020B0EB96
:10249000911F28D0FFE7079890F85100032813D028
:1024A000FFE70799486D40F004004865FFE700200A
:1024B000049007980068C0680490079800688068D6
:1024C00004900498FFE70DE0FFE7002003900798D1
:1024D0000068C068039007980068806803900398BC
:1024E000FFE789E0FFE79DF8140000F020010020DD
:1024F000B0EB511F15D0FFE70799486D40F0010080
:102500004865FFE700200290079800688068029005
:1025100007980168086820F0400008600298FFE70B
:10252000FFE79DF81500C00778B1FFE70799486DF0
:1025300040F008004865FFE7002001900798006818
:10254000806801900198FFE7FFE70798406D002839
:1025500051D0FFE707980168486820F0E000486024
:102560000799012081F85100069800F00200022826
:1025700005D0FFE79DF81800C007B8B3FFE707983C
:102580000168486820F0030048600798C06CA0B15B
:10259000FFE70798C16C46F6ED40C0F600000865FD
:1025A0000798C06CFEF706FC30B1FFE70799486D4D
:1025B00040F040004865FFE7FFE70798806CA0B156
:1025C000FFE70798816C46F6ED40C0F6000008650D
:1025D0000798806CFEF7EEFB30B1FFE70799486D76
:1025E00040F040004865FFE7FFE703E00798FFF78A
:1025F000E9FEFFE7FFE7FFE708B080BD80B584B0E4
:102600000290029820B9FFE701208DF80F0072E0D8
:102610000298406A60B9FFE702984068B0F5827F8F
:1026200001D1FFE703E002990020C861FFE705E060
:1026300002990020086102994861FFE70299002091
:102640008862029890F8510040B9FFE70299002093
:1026500081F85000029800F053F8FFE70299022039
:1026600081F8510002980168086820F04000086075
:10267000029A019211685068D2F808C0D36800F439
:1026800082700CF4044C604403F400631844136932
:1026900003F002031844536903F0010318449369DB
:1026A00003F400731844D36903F038031844136A21
:1026B00003F080031843926A02F40052104308604A
:1026C000029801688369426A042000EA134002F01C
:1026D00010021044486002980168C86920F4006044
:1026E000C861029900204865029A012182F85110C0
:1026F0008DF80F00FFE79DF80F0004B080BD0000CB
:1027000080B592B01190002010900F900E900D9017
:102710000C901198006843F60001C4F20001884251
:1027200040F0B880FFE7FFE700200B9043F6400041
:10273000C4F20200016841F480410160006800F4C5
:1027400080400B900B98FFE7FFE700200A9043F6CC
:102750003000C4F20200016841F004010160006829
:1027600000F004000A900A98FFE7FFE700200990B4
:1027700043F63000C4F20200016841F0020101603A
:10278000006800F0020009900998FFE70C200C9007
:10279000022003900D90002007900E9003200490DB
:1027A0000F9005200590109040F60000C4F2020042
:1027B0000CA90691FEF7CAFDDDF80CC0049A059835
:1027C0000699079B4FF4005ECDF830E0CDF834C099
:1027D0000E930F92109040F20040C4F20200FEF7F8
:1027E000B5FD079940F2A850C2F20000089046F2E9
:1027F0005802C4F20202026041608160C1604FF47D
:102800008062026141618161C16101624162FEF7E2
:1028100083FC18B1FFE7FEF7DFF9FFE7FFE7119848
:1028200040F2A851C2F20001C16411988863FFE729
:1028300040F20860C2F20000029046F27001C4F259
:10284000020101600021416040228260C1604FF4BA
:102850008062026141618161C16101624162FEF792
:102860005BFC18B1FFE7FEF7B7F9FFE7FFE7119848
:1028700040F20861C2F20001816411988863FFE7A9
:102880002420019005210022FFF732F80198FFF77C
:1028900025F8FFE712B080BD80B58CB0DDF838C0F8
:1028A0000A9009910892ADF81E3001200390FEF7BE
:1028B00041FF04900A9890F851008DF817000A988B
:1028C00040680690BDF81E00ADF81C009DF817008A
:1028D000012812D0FFE70698B0F5827F09D1FFE703
:1028E0000A98806828B9FFE79DF81700042804D0EB
:1028F000FFE702208DF82F009BE1099838B1FFE730
:10290000089820B1FFE7BDF81E0020B9FFE70120BD
:102910008DF82F008DE1FFE70A9890F8500001280C
:1029200004D1FFE702208DF82F0082E10A990120EF
:1029300081F85000FFE7FFE70A9890F8510004285B
:1029400005D0FFE70A99052081F85100FFE70A99B1
:102950000020486508990A9A9163BDF81E100A9AEA
:10296000D187BDF81E100A9A918709990A9A1163B6
:10297000BDF81E100A9AD186BDF81E100A9A9186DB
:102980000A9908640A9948640A980068006800F087
:102990004000402807D0FFE70A980168086840F027
:1029A00040000860FFE70A98C068B0F5006F40F08B
:1029B0008180FFE70A98406828B1FFE7BDF81C0056
:1029C00001280ED1FFE70A980168006B0088C860F3
:1029D0000A99086B023008630A99C88E0138C886C4
:1029E000FFE7FFE70A98C18E0120019039B9FFE7A0
:1029F0000A98C08F002818BF01200190FFE70198B6
:102A0000C007002855D0FFE70A9800688068800753
:102A1000002818D5FFE70A98C08EA0B1FFE70398F9
:102A2000012810D1FFE70A980168006B0088C86090
:102A30000A99086B023008630A99C88E0138C88663
:102A400000200390FFE70A9800688068C007A8B1DB
:102A5000FFE70A98C08F88B1FFE70A980068C0684E
:102A60000A99896B08800A99886B023088630A99F1
:102A7000C88F0138C88701200390FFE7FEF75AFE90
:102A80000499401A0E99884212D3FFE70E9801303C
:102A900070B1FFE70A99012081F85100FFE70A9918
:102AA000002081F85000FFE703208DF82F00C0E0E0
:102AB00098E782E00A98406828B1FFE7BDF81C005B
:102AC00001280ED1FFE70A980168006B00780873AF
:102AD0000A99086B013008630A99C88E0138C886C4
:102AE000FFE7FFE70A98C18E0120009039B9FFE7A0
:102AF0000A98C08F002818BF01200090FFE70098B7
:102B0000C007002858D0FFE70A980068806880074F
:102B1000002818D5FFE70A98C08EA0B1FFE70398F8
:102B2000012810D1FFE70A980168006B007808734C
:102B30000A99086B013008630A99C88E0138C88663
:102B400000200390FFE70A9800688068C007A8B1DA
:102B5000FFE70A98C08F88B1FFE70A980068C0684D
:102B60000A99896B08700A99886B013088630A9901
:102B7000C88F0138C88701200390FFE7FEF7DAFD10
:102B80000499401A0E99884204D3FFE70E98013049
:102B900018B9FFE70E9870B9FFE70A99012081F88C
:102BA0005100FFE70A99002081F85000FFE7032059
:102BB0008DF82F003DE095E7FFE70A980E99049AFB
:102BC00004F0A4F868B1FFE70A9920204865FFE700
:102BD0000A99002081F85000FFE701208DF82F00AE
:102BE00027E00A98806870B9FFE7FFE700200290AD
:102BF0000A980068C06802900A980068806802908D
:102C00000298FFE7FFE70A99012081F85100FFE7EA
:102C10000A99002081F85000FFE70A98406D20B122
:102C2000FFE701208DF82F0003E000208DF82F0032
:102C3000FFE79DF82F000CB080BD000081B0009030
:102C400001B0704781B0009001B0704785B003902B
:102C50000291FFE7039890F83C00012804D1FFE7B8
:102C600002208DF813007EE00399012081F83C00DA
:102C7000FFE7FFE70399022081F83D000398006811
:102C8000406801900398006880680090019820F0E7
:102C90007000019002980168019808430190019822
:102CA000039909684860039800680021C4F2010193
:102CB00088423CD0FFE703980068B0F1804F36D0DF
:102CC000FFE70398006840F20041C4F20001884227
:102CD0002DD0FFE70398006840F60001C4F2000120
:102CE000884224D0FFE70398006840F60041C4F210
:102CF000000188421BD0FFE70398006840F20041C2
:102D0000C4F20101884212D0FFE70398006844F240
:102D10000001C4F20101884209D0FFE7039800686E
:102D200041F60001C4F2000188420ED1FFE700988D
:102D300020F08000009002984168009808430090BD
:102D40000098039909688860FFE70399012081F8DA
:102D50003D00FFE70399002081F83C00FFE70020D9
:102D60008DF81300FFE79DF8130005B070470000D1
:102D700080B582B00090009820B9FFE701208DF85F
:102D800007003FE0009890F83D0040B9FFE7009948
:102D9000002081F83C00009800F038F8FFE7009927
:102DA000022081F83D00009951F8040B04F0BCF9B1
:102DB0000099012081F84600FFE70099012081F881
:102DC0003E00009981F83F00009981F84000009989
:102DD00081F84100FFE7FFE70099012081F84200F8
:102DE000009981F84300009981F84400009981F826
:102DF0004500FFE70099012081F83D0000208DF893
:102E00000700FFE79DF8070002B080BD81B0009089
:102E100001B0704783B00190019890F83D000128FF
:102E200004D0FFE701208DF80B006AE00199022031
:102E300081F83D0001980168C86840F00100C86051
:102E4000019800680021C4F2010188423CD0FFE7EC
:102E500001980068B0F1804F36D0FFE70198006814
:102E600040F20041C4F2000188422DD0FFE70198F2
:102E7000006840F60001C4F20001884224D0FFE758
:102E80000198006840F60041C4F2000188421BD05E
:102E9000FFE70198006840F20041C4F20101884256
:102EA00012D0FFE70198006844F20001C4F201016A
:102EB000884209D0FFE70198006841F60001C4F29A
:102EC0000001884212D1FFE701980068806800F095
:102ED000070000900098062807D0FFE701980168D6
:102EE000086840F001000860FFE706E0019801680B
:102EF000086840F001000860FFE700208DF80B0033
:102F0000FFE79DF80B0003B07047000081B0009010
:102F100001B0704781B0009001B0704780B584B0B7
:102F2000039003980068C0680290039800680069E5
:102F300001909DF804008007002824D5FFE79DF844
:102F40000800800700281DD5FFE7039801686FF08F
:102F500002000861039901200877039800688069DE
:102F6000800720B1FFE70398FFF7D4FF06E003983E
:102F700000F018F9039800F063FAFFE703990020C6
:102F80000877FFE7FFE79DF804004007002825D5F4
:102F9000FFE79DF80800400700281ED5FFE70398CB
:102FA00001686FF004000861039902200877039814
:102FB0000068806910F4407F04D0FFE70398FFF7B2
:102FC000A9FF06E0039800F0EDF8039800F038FA46
:102FD000FFE7039900200877FFE7FFE79DF804006B
:102FE0000007002824D5FFE79DF808000007002807
:102FF0001DD5FFE7039801686FF008000861039989
:103000000420087703980068C069800720B1FFE7B3
:103010000398FFF77FFF06E0039800F0C3F80398DA
:1030200000F00EFAFFE7039900200877FFE7FFE7BB
:103030009DF80400C006002825D5FFE79DF808008C
:10304000C00600281ED5FFE7039801686FF0100046
:10305000086103990820087703980068C06910F494
:10306000407F04D0FFE70398FFF754FF06E0039882
:1030700000F098F8039800F0E3F9FFE703990020C7
:103080000877FFE7FFE79DF80400C00778B1FFE786
:103090009DF80800C00748B1FFE7039801686FF08A
:1030A00001000861039800F0C1FBFFE7FFE79DF80E
:1030B00004000006002810D5FFE79DF80800000670
:1030C000002809D5FFE7039801686FF080000861C8
:1030D0000398FFF7B3FDFFE7FFE79DF80400400604
:1030E000002810D5FFE79DF808004006002809D504
:1030F000FFE7039801686FF040000861039800F053
:10310000A7FBFFE7FFE79DF804008006002810D525
:10311000FFE79DF808008006002809D5FFE703981F
:1031200001686FF0200008610398FFF78BFDFFE74F
:10313000FFE704B080BD000080B588B00790002094
:10314000069005900490039002900798006840F262
:103150000041C4F20001884221D1FFE7FFE70020CF
:10316000019043F63000C4F20200016841F004010E
:103170000160006800F0040001900198FFE78020E2
:10318000029002200390049001210591069040F6E0
:103190000000C4F2020002A9FEF7D8F8FFE708B069
:1031A00080BD000081B0009001B0704780B586B04E
:1031B00004900391029200208DF80700FFE7049825
:1031C00090F83C00012804D1FFE702208DF8170099
:1031D00089E00499012081F83C00FFE7FFE70298AD
:1031E00000900C2800F270800099DFE801F0076D74
:1031F0006D6D206D6D6D3A6D6D6D530004980068B6
:10320000039904F06BF904980168886940F008009C
:10321000886104980168886920F004008861039837
:1032200002690498016888691043886150E0049835
:103230000068039904F0C8F904980168886940F4AB
:103240000060886104980168886920F48060886162
:103250000398026904980168886940EA022088613D
:1032600036E004980068039904F028FA049801688D
:10327000C86940F00800C86104980168C86920F076
:103280000400C8610398026904980168C869104382
:10329000C8611DE004980068039904F089FA049855
:1032A0000168C86940F40060C86104980168C86991
:1032B00020F48060C8610398026904980168C869B5
:1032C00040EA0220C86103E001208DF80700FFE713
:1032D000FFE70499002081F83C00FFE79DF8070014
:1032E0008DF81700FFE79DF8170006B080BD0000BD
:1032F00080B582B00090009820B9FFE701208DF8DA
:1033000007003FE0009890F83D0040B9FFE70099C2
:10331000002081F83C00009800F038F8FFE70099A1
:10332000022081F83D00009951F8040B03F0FCFEE7
:103330000099012081F84600FFE70099012081F8FB
:103340003E00009981F83F00009981F84000009903
:1033500081F84100FFE7FFE70099012081F8420072
:10336000009981F84300009981F84400009981F8A0
:103370004500FFE70099012081F83D0000208DF80D
:103380000700FFE79DF8070002B080BD80B584B05C
:1033900003900398006840F20041C4F200018842A3
:1033A0004BD1FFE7FFE70020029043F64000C4F254
:1033B0000200016841F002010160006800F00200B3
:1033C00002900298FFE740F26860C2F200000190AC
:1033D00046F28801C4F2020101604FF020614160B1
:1033E000402181600021C1604FF4806202614FF48E
:1033F000805242614FF480428261C1614FF4803259
:1034000002624162FDF788FE18B1FFE7FDF7E4FBB9
:10341000FFE7FFE7039840F26861C2F200018162B2
:1034200003988863FFE71D20009005210022FEF726
:103430005FFA0098FEF752FAFFE704B080BD000083
:1034400081B0009001B0704781B0009001B070472A
:1034500080B592B010900F910E92ADF836300020EA
:103460008DF835000F9828B9FFE7109890F83E00C6
:103470000B901CE00F98042805D1FFE7109890F8F6
:103480003F000A9010E00F98082805D1FFE7109838
:1034900090F84000099004E0109890F841000990DD
:1034A000FFE709980A90FFE70A980B90FFE70B984F
:1034B000022804D1FFE702208DF84700B1E10F9800
:1034C00028B9FFE7109890F83E0008901CE00F988C
:1034D000042805D1FFE7109890F83F00079010E00E
:1034E0000F98082805D1FFE7109890F84000069043
:1034F00004E0109890F841000690FFE706980790C6
:10350000FFE707980890FFE70898012834D1FFE704
:103510000E9820B1FFE7BDF8360020B9FFE7012083
:103520008DF847007DE10F9828B9FFE71099022038
:1035300081F83E001EE00F98042806D1FFE710999D
:10354000022081F83F00059012E00F98082806D16C
:10355000FFE71099022081F84000049005E01099DF
:10356000022081F841000490FFE704980590FFE7EE
:103570000598FFE7FFE703E001208DF8470050E1E1
:10358000FFE70F9803900C2800F2B6800399DFE85C
:1035900001F007B3B3B332B3B3B35DB3B3B38800D1
:1035A0001098416A47F21130C0F60000C8631098C5
:1035B000416A47F2CD30C0F6000008641098416AB5
:1035C00047F24140C0F60000C86410980268406AA3
:1035D0000E993432BDF83630FDF756FE20B1FFE7C4
:1035E00001208DF847001CE110980168C86840F47C
:1035F0000070C86084E01098816A47F21130C0F60C
:103600000000C8631098816A47F2CD30C0F6000010
:1036100008641098816A47F24140C0F60000C8640F
:1036200010980268806A0E993832BDF83630FDF77E
:103630002BFE20B1FFE701208DF84700F1E0109844
:103640000168C86840F48060C86059E01098C16A99
:1036500047F21130C0F60000C8631098C16A47F203
:10366000CD30C0F6000008641098C16A47F24140AE
:10367000C0F60000C86410980268C06A0E993C3217
:10368000BDF83630FDF700FE20B1FFE701208DF8D0
:103690004700C6E010980168C86840F40060C86040
:1036A0002EE01098016B47F21130C0F60000C8639D
:1036B0001098016B47F2CD30C0F6000008641098F6
:1036C000016B47F24140C0F60000C86410980268E0
:1036D000006B0E994032BDF83630FDF7D5FD20B1B4
:1036E000FFE701208DF847009BE010980168C8684B
:1036F00040F48050C86003E001208DF83500FFE7FA
:103700009DF83500002840F08780FFE7109800689A
:103710000F990122019203F0DFFD019810990968C9
:103720000022C4F20102914202900CD0FFE71098EF
:1037300000684FF60041CBF6FE710844B0FA80F005
:1037400040090290FFE70298C00738B1FFE71098E0
:103750000168486C40F400404864FFE71098006836
:103760000021C4F2010188423CD0FFE710980068B4
:10377000B0F1804F36D0FFE71098006840F200416A
:10378000C4F2000188422DD0FFE71098006840F68F
:103790000001C4F20001884224D0FFE710980068BD
:1037A00040F60041C4F2000188421BD0FFE71098A8
:1037B000006840F20041C4F20101884212D0FFE7E4
:1037C0001098006844F20001C4F20101884209D057
:1037D000FFE71098006841F60001C4F2000188423A
:1037E00012D1FFE710980068806800F007000C9085
:1037F0000C98062807D0FFE710980168086840F089
:1038000001000860FFE706E010980168086840F0D2
:1038100001000860FFE7FFE79DF835008DF84700DD
:10382000FFE79DF8470012B080BD000080B582B070
:1038300001900198006842F20001C4F20001884240
:1038400003D1FFE7FDF77CFFFFE702B080BD00007A
:1038500081B0009001B0704780B584B003900399A7
:10386000002001900874039BD3F8F400596845F2D6
:10387000AE22C2F20002009212889B7B5A43FCF7F0
:10388000E6FD0099039A50680988927B5143FCF742
:103890003AFE0099039AD2F818010988927B5143A5
:1038A0005143FCF730FE0099039AD2F80C010988C5
:1038B000137B927B59435143FCF725FE01988DF809
:1038C0000B00FFE79DF80B000399897B884243DAE0
:1038D000FFE70398D0F8F4009DF80B1000EB81008F
:1038E00090ED000AB5EE400AF1EE10FA2DD0FFE798
:1038F000039AD2F8F4109DF80B0051F82000127CC6
:1039000041F822009DF80B00039A516A127C8854FA
:10391000DDF80CC0DCF818009DF80BE050F82E0024
:10392000DCF80C119CF80C209CF81030DCF814C06A
:103930001CF80EC012FB03C201EB820141F8040C1B
:103940000399087C01300874FFE7FFE79DF80B003E
:1039500001308DF80B00B5E700208DF80A00FFE775
:103960009DF80A000399097C884216DAFFE7039B59
:10397000D869596A9DF80A20895C50F82100D3F86B
:1039800018111B7C12FB032241F82200FFE79DF86F
:103990000A0001308DF80A00E2E70399087CA1F8DB
:1039A00078000399087BA1F87A000399087BA1F8B5
:1039B00080000399087CA1F882000399087CA1F893
:1039C00090000399087CA1F892000399087BA1F864
:1039D00098000399087CA1F89A000399087CA1F843
:1039E000480004B080BD0000FFE7FEE780B58AB064
:1039F00004A902910146029809910999D1F8EC10A5
:103A0000096808910999D1F8EC104968079109995A
:103A1000D1F8EC10896806910999D1F8EC10C968C1
:103A2000059190ED040A90ED042A90ED031A90EDB3
:103A3000033A21EE031A20EE020A30EE011A90ED4D
:103A4000020A90ED022A20EE020A30EE011A90EDF1
:103A5000010A90ED012A20EE020A30EE010A05F07B
:103A60004BFB029880ED000A00208DF80F00FFE765
:103A70009DF80F00032817DCFFE7029890ED001A6D
:103A80000998D0F8EC009DF80F1000EB810090ED44
:103A9000000A20EE010A80ED000AFFE79DF80F0002
:103AA00001308DF80F00E3E7029991ED030A40F22F
:103AB0008030C2F20000009090ED6F1A20EE010AF3
:103AC000B0EE001A8DED011A80EE010A099AD2F8C3
:103AD000002182ED040A91ED020A90ED6F2A20EE9A
:103AE000020A80EE010A099AD2F8002182ED050A45
:103AF00091ED040A90ED6F2A20EE420A80EE010A51
:103B0000099AD2F8002182ED0A0A91ED010A90ED9E
:103B10006F2A20EE020A80EE010A099AD2F80021EB
:103B200082ED0B0A91ED010A90ED6F2A20EE420A18
:103B300080EE010A099AD2F8002182ED100A91ED77
:103B4000040A90ED6F2A20EE420A80EE010A099ADB
:103B5000D2F8002182ED110A91ED020A90ED6F2A50
:103B600020EE020A80EE010A099AD2F8002182EDC5
:103B7000160A91ED030A90ED6F2A20EE420A80EEBC
:103B8000010A0999D1F8001181ED170A90ED741A14
:103B90000999D1F8F81091ED1C0A80EE010A81ED27
:103BA0001C0A90ED741A0998D0F8F80090ED230AD9
:103BB00080EE010A80ED230A0998D0F8F80090ED14
:103BC0001C0A9FED151AB4EE410AF1EE10FA09DD58
:103BD000FFE70998D0F8F81044F20000C4F21C6026
:103BE0000867FFE70998D0F8F80090ED230A9FEDE9
:103BF0000A1AB4EE410AF1EE10FA0ADDFFE709985D
:103C0000D0F8F81044F20000C4F21C60C1F88C0037
:103C1000FFE70AB080BD00BF00401C4680B58CB0F5
:103C20008DED0B0ACDED0A0A8DED091ACDED081ABE
:103C30008DED072ACDED062A40F28031C2F2000157
:103C40000591012008700B98C1F8B0010A98C1F8DD
:103C5000B4010998C1F8B8014CF67740C3F22B20A3
:103C6000C1F8CC01002081F83801C1F84401C1F845
:103C70004001C1F84C01C1F848010798C1F8BC01E6
:103C80009DED080AB7EE001AB4EE410AF1EE10FA03
:103C900004DDFFE74FF07E500890FFE7089940F2FF
:103CA0008030C2F200000390C0F8D0110430062129
:103CB00000220192032300F0EDFE039901F5E0706C
:103CC00001F5E47301220292114604F0B9F9019A58
:103CD00002990398D0F8ECC04FF07E53CCF8003036
:103CE000D0F8EC305A60D0F8EC309A60D0F8EC3074
:103CF000DA6043F65952C0F60002C0F8D02043F60D
:103D0000ED12C0F60002C0F8D42043F6A152C0F66E
:103D10000002C0F8D82044F23542C0F60002C0F8D4
:103D2000DC2080F82E1080F82F10D0F804014DF21E
:103D30004011C0F6000190220492FCF788FB039822
:103D4000049AD0F8FC0040F22401C2F20001FCF712
:103D50007EFB0CB080BD000080B582B00190019860
:103D6000D0F8F81040F22400C2F200009022FCF7D4
:103D70006EFB0198D0F81C1140F20030C2F2000036
:103D800048220092FCF763FB009A0198D0F80C11CE
:103D900040F2B820C2F20000FCF759FB02B080BD2F
:103DA00080B586B005900598D0F8EC0090ED000A3B
:103DB00030EE000A8DED040A0598D0F8EC0090ED85
:103DC000010A30EE000A8DED030A0598D0F8EC00E8
:103DD00090ED020A30EE000A8DED020A0598D0F847
:103DE000EC0090ED030A30EE000A8DED010A059B10
:103DF000D3F80C0145F2AE21C2F2000109881A7B0A
:103E00009B7B59435143FCF77EFB9DED020AB1EECB
:103E1000400A0598D0F80C0180ED000A0198059938
:103E2000D1F80C1148609DED040AB1EE400A0598E6
:103E3000D0F80C0180ED020A03980599D1F80C1115
:103E4000C86003980599D1F80C1188610498059908
:103E5000D1F80C11C86101980599D1F80C110862CC
:103E600002980599D1F80C11486204980599D1F887
:103E70000C1108639DED030AB1EE400A0598D0F8D5
:103E80000C0180ED0D0A9DED020AB1EE400A059885
:103E9000D0F80C0180ED0E0A01980599D1F80C11AB
:103EA000C86306B080BD000080B592B08DED0F0AEA
:103EB000CDED0E0A8DED0D1ACDED0C1A8DED0B2A00
:103EC000CDED0A2A9DED0F0A40F28030C2F20000CB
:103ED000059090ED581A30EE410A80ED5B0A9DED99
:103EE0000E0A90ED591A30EE410A80ED5C0A9DED04
:103EF0000D0A90ED5A1A30EE410A80ED5D0A90ED00
:103F00005B0A90ED6F1AB6EE002A20EE020A20EE50
:103F1000010A8DED090A90ED5C0A90ED6F1A20EE12
:103F2000020A20EE010A8DED080A90ED5D0A90ED7F
:103F30006F1A20EE020A20EE010A8DED070AD0F872
:103F400004014DF24011C0F600019022FCF77FFA07
:103F500005999DED090AB1EE400AD1F8040180ED02
:103F6000010A9DED080AB1EE400AD1F8040180ED86
:103F7000020A9DED070AB1EE400AD1F8040180ED76
:103F8000030A0998D1F8042190610798D1F8042117
:103F900010629DED080AB1EE400AD1F8040180EDEF
:103FA000090A0898D1F8042110639DED070AB1EEC3
:103FB000400AD1F8040180ED0D0A0998D1F80421D6
:103FC000D0630798D1F8042190640898D1F80421AF
:103FD000D0649DED090AB1EE400AD1F8040180EDEC
:103FE000140AD1F84801D1F84C110843C8B9FFE7C9
:103FF0000C9840F28031C2F20001C1F878010B98B0
:10400000C1F87C010A98C1F88001D1F84821D1F8A3
:104010004C01013240F10000C1F84821C1F84C01C7
:10402000FFE740F28030C2F20000049090ED5E0A9B
:1040300090ED641A90ED6F3A20EE010A33EE012AFA
:1040400080EE020A9DED0C1A21EE031A81EE021A8F
:1040500030EE010A80ED5E0A90ED5F0A90ED641A81
:1040600090ED6F3A20EE010A33EE012A80EE020A4B
:104070009DED0B1A21EE031A81EE021A30EE010AB1
:1040800080ED5F0A90ED600A90ED641A90ED6F3A52
:1040900020EE010A33EE012A80EE020A9DED0A1A93
:1040A00021EE031A81EE021A30EE010A80ED600A59
:1040B00090ED5E1A90ED5F2A90ED600A22EE022AE2
:1040C00021EE011A31EE021A20EE000A30EE010A4A
:1040D0008DED110A9DED110AB1EEC00A8DED110AA8
:1040E0001199C0F8981190ED661AB7EE000A80EEAB
:1040F000010A8DED060A90ED5E0A9DED061A20EE8E
:10410000010A816881ED000A90ED5F0A9DED061AB3
:1041100020EE010A816881ED010A90ED600A9DEDB3
:10412000061A20EE010A816881ED020A90ED5B1A01
:1041300090ED5C2A90ED5D0A22EE022A21EE011A32
:1041400031EE021A20EE000A30EE010A8DED100A5F
:104150009DED100AB1EEC00A8DED100A1099C0F85D
:10416000941190ED650A9FEDAC1AB4EE410AF1EEA0
:1041700010FA24DAFFE740F28030C2F2000090ED3E
:10418000660A9FEDA61AB4EE410AF1EE10FA16DDAA
:10419000FFE740F28030C2F2000090ED660A9FED2A
:1041A000A01AB4EE410AF1EE10FA08DAFFE740F285
:1041B0008031C2F20001012081F8390107E040F2AC
:1041C0008031C2F20001002081F83901FFE740F29E
:1041D0008031C2F20001039191ED6C0A91ED6F1AEA
:1041E00020EE010A081DD1F8182182ED000A91ED98
:1041F0006C0A91ED6F1A20EE010AD1F8182182EDB8
:10420000070A91ED6C0A91ED6F1A20EE010AD1F8C0
:10421000182182ED0E0A91ED6C0A91ED6F1A20EED5
:10422000010AD1F8182182ED150A91ED6D0A91ED80
:104230006F1A20EE010AD1F8182182ED1C0A91EDC7
:104240006D0A91ED6F1A20EE010AD1F8182182ED66
:10425000230AD1F81C31D1F8B8211A60D1F81C31E9
:10426000D1F8B8211A61D1F81C21D1F8B811116226
:1042700001F066F8039841680968C0F85011416878
:104280004968C0F8541141688968C0F858114168FC
:10429000C968C0F85C1190ED540A90ED551A90ED84
:1042A000562A90ED573A22EE033A20EE010A30EEFC
:1042B000030A21EE013AB6EE001A8DED011A31EE35
:1042C000431A22EE022A71EE420A00F5D07003F082
:1042D00087FB039890ED680A9FED521A8DED021A44
:1042E00020EE010A80ED680A90ED540A90ED551A0F
:1042F00090ED563A90ED572A20EE030A21EE021A6D
:1043000030EE410A30EE000A07F00CFE9DED011A76
:104310009DED022A039820EE020A80ED690A90EDD5
:10432000544A90ED550A90ED563A90ED572A24EEF6
:10433000024A20EE030A30EE040A23EE033A31EE7D
:10434000431A22EE022A71EE420A00F5D47003F0FD
:1043500047FB9DED021A039890ED6A0A20EE010AD0
:1043600080ED6A0A41680969C0F8601141684969CD
:10437000C0F864110021C0F8681190ED6A0A90ED50
:10438000761A30EE410A9FED281AB4EE410AF1EE9A
:1043900010FA0ADDFFE740F28031C2F20001B1F805
:1043A000D4010138A1F8D4011CE040F28030C2F2FF
:1043B000000090ED6A0A90ED761A30EE410A9FED0A
:1043C0001B1AB4EE410AF1EE10FA0ADAFFE740F2E6
:1043D0008031C2F20001B1F8D4010130A1F8D4015A
:1043E000FFE7FFE740F28031C2F20001B1F9D401EA
:1043F00000EE100AB8EEC00A91ED6A1A9FED0C2A81
:1044000020EE020A30EE010A81ED6B0AD1F8A80114
:10441000C1F8D80112B080BD9A99993ECDCC144113
:10442000CDCC2441E12E654200003443000034C36A
:104430000000B44380B58CB007A904910B900B9990
:1044400001F17800803104F0AFF90B9981F8C800D0
:104450000B99B1F87800A1F8A8000B99B1F85A00AF
:10446000A1F8AA000B9A02F1780002F15801A832D3
:1044700004F0DEF80B9981F8C8000B99B1F8A80098
:10448000A1F8B0000B99B1F88200A1F8B2000B9A24
:1044900002F1A80002F18001B03204F0C9F80B99D2
:1044A00081F8C8000B99B1F89000A1F8A0000B9911
:1044B000B1F89200A1F8A2000B9A02F1B00002F14B
:1044C0009001A03203F088FD0B9981F8C8000B9988
:1044D00001F1A000B03103F0C7FD014604980B9A2A
:1044E00082F8C8100B99D1F8EC1009680A910B9961
:1044F000D1F8EC10496809910B99D1F8EC10896852
:1045000008910B99D1F8EC10C96807910B9AB2F891
:104510007810A2F8B8100B9A0121A2F8BA1090ED09
:10452000020A90ED002A90ED031A90ED013A21EE77
:10453000031A20EE020A30EE410A30EE000A0B990F
:10454000D1F82C1181ED000A90ED030A90ED022ABA
:1045500090ED011A90ED003A21EE031A20EE020AC6
:1045600030EE010A30EE000A0B99D1F82C1181EDE2
:10457000010A90ED030A90ED032A90ED021A90EDE6
:10458000023A21EE031A20EE020A30EE410A90EDC3
:10459000011A90ED012A21EE021A30EE411A90ED37
:1045A000000A90ED002A20EE020A30EE010A0B9874
:1045B000D0F82C0180ED020A00208DF81B00FFE7E7
:1045C0009DF81B0002281EDCFFE70B98D0F82C0199
:1045D0009DF81B1000EB810090ED000AB0EEC00AC0
:1045E00003F076FC9DF81B1040F28030C2F2000010
:1045F00000EB810080ED610AFFE79DF81B000130B0
:104600008DF81B00DCE70B99B1F84800A1F8C00059
:104610000B9901200290A1F8C2000B9A02F1480008
:1046200002F1B801C03204F08BF8014602980B9AEF
:1046300082F8C8100B9AB2F8C010A2F8A8100B9913
:10464000A1F8AA000B9A02F1B00002F1C001A83251
:1046500003F0EEFF014602980B9A82F8C8100B99FE
:10466000A1F8B8000B99B1F8C000A1F8BA000B99F5
:1046700001F1C000B83104F097F80B9981F8C80037
:104680000B9901F1B800A83140F28032C2F2000269
:10469000039202F5E07203F0CBFF014603980B9AF8
:1046A00082F8C81090ED720A90ED731AB6EE002AE7
:1046B00021EE021AB4EE410AF1EE10FA08DAFFE731
:1046C00040F28031C2F20001012081F83801FFE799
:1046D00040F28030C2F2000090ED720A90ED731A41
:1046E000B4EE410AF1EE10FA64DDFFE740F28030EB
:1046F000C2F2000090F8380100285BD0FFE740F2DA
:104700008030C2F2000090F8390180B1FFE740F23A
:104710008031C2F20001D1F84021D1F844010132C8
:1047200040F10000C1F84021C1F8440109E040F225
:104730008031C2F200010020C1F84401C1F84001FB
:10474000FFE740F28030C2F20000D0F84011D0F80C
:104750004401333970F100000BD3FFE740F28031A0
:10476000C2F20001002081F838010B9981F82C0079
:104770001FE00B9BD3F8E800D3F8EC1045F2AE2213
:10478000C2F20002019212881B7B5A43FBF75FFEC4
:10479000019A0B9BD3F8F800D3F8FC1012881B7B0E
:1047A0005A435A43FBF753FE0B99012081F82C0022
:1047B00063E142E040F28030C2F2000090ED720A04
:1047C00090ED731A9FEDAE2A21EE021AB4EE410A63
:1047D000F1EE10FA1BDDFFE740F28030C2F200007C
:1047E00090F8380198B1FFE740F28030C2F2000043
:1047F00090ED720A90ED731A31EE400A9FEDA12AF6
:1048000021EE021A80EE010A80ED670A08E040F20C
:104810008031C2F200014FF07E50C1F89C01FFE7E9
:1048200040F28031C2F200010020C1F84401C1F819
:1048300040010B9981F82C00FFE70B99B1F8580063
:10484000A1F8A8000B99B1F88200A1F8AA000B9A70
:1048500002F1580002F18001A83203F0E9FE0B9941
:1048600081F8C8000B9A02F1A80002F1B001983259
:1048700003F0DEFE0B9981F8C80000208DF81A00C5
:10488000FFE79DF81A000B9AB2F89810B2F89A2038
:10489000514388421ADAFFE740F28030C2F200004A
:1048A00090ED671A0B98D0F81C019DF81A1000EBD8
:1048B000810090ED000A20EE010A80ED000AFFE77A
:1048C0009DF81A0001308DF81A00DAE704208DF8FF
:1048D0001900FFE79DF81900052835DCFFE70020E7
:1048E0008DF81800FFE79DF81800022825DCFFE787
:1048F0009DF8191040F28030C2F2000000EB8100F8
:1049000090ED5D0A9FED621A80EE011A0B98D0F8C7
:104910001C0101EB41019DF81820114400EB8100BE
:1049200090ED000A20EE010A80ED000AFFE79DF8F5
:10493000180001308DF81800D5E7FFE79DF8190041
:1049400001308DF81900C5E70B99B1F89800A1F86E
:10495000B8000B990120A1F8BA000B9A02F1980057
:1049600002F1C001B83203F063FE0B9981F8C80070
:1049700040F28030C2F2000090F8380100286BD07D
:10498000FFE704208DF81700FFE79DF817000528C2
:1049900061DCFFE70B98D0F8BC009DF8171000EB26
:1049A000810090ED000A40F28030C2F2000090EDEC
:1049B0006F1A9FED352A21EE021AB4EE410AF1EE8C
:1049C00010FA14DDFFE740F28030C2F2000090EDF3
:1049D0006F0A9FED2D1A20EE010A0B98D0F8BC004B
:1049E0009DF8171000EB810080ED000AFFE70B989F
:1049F000D0F8BC009DF8171000EB810090ED000A84
:104A000040F28030C2F2000090ED6F1A9FED1F2A35
:104A100021EE021AB4EE410AF1EE10FA14DAFFE7C1
:104A200040F28030C2F2000090ED6F0A9FED171A3D
:104A300020EE010A0B98D0F8BC009DF8171000EB8F
:104A4000810080ED000AFFE7FFE79DF817000130C5
:104A50008DF8170099E7FFE70B98D0F8BC100020FD
:104A6000C8600B9A02F1380002F1B801303203F04D
:104A7000B3FA0B9981F8C800FFE70CB080BD00BF06
:104A8000CDCCCC3D6666663F0AD7233C0AD723BC13
:104A9000DA0FC93F80B58AB009908DF823108DF8E0
:104AA00022208DF8213045F2AE21C2F2000106919C
:104AB0000420088045F2AC21C2F2000108200880E1
:104AC0009DF82300099908739DF8220009994873FD
:104AD0009DF82100099988730999002008749DF8B0
:104AE000210005F0EFFC09994861099840699DF89B
:104AF0002110FBF7E6FC069800889DF8211048433A
:104B000005F0E0FC0699099A906109988069098886
:104B10009DF821205143FBF7F6FC069800889DF88C
:104B20002110484305F0CEFC0699099AD0610998F6
:104B3000C06909889DF821205143FBF7E4FC0698E1
:104B400000889DF82310484305F0BCFC0699099A9B
:104B500010620998006A09889DF823205143FBF7E9
:104B6000D2FC9DF8210005F0ADFC09994862099836
:104B7000406A9DF82110FBF7A4FC069800889DF878
:104B80002310484305F09EFC0699099A1060099885
:104B9000006809889DF823205143FBF7B4FC069870
:104BA00000889DF82110484305F08CFC0699099A6D
:104BB00050600998406809889DF821205143FBF70F
:104BC000A2FC069800889DF82210484305F07AFC64
:104BD0000699099A90600998806809889DF82220B2
:104BE0005143FBF790FC069800889DF8231048433A
:104BF00005F068FC0699099AC2F8E8000998D0F80F
:104C0000E80009889DF823205143FBF77CFC099AB2
:104C100002F13000117BD2F8E8300122079203F054
:104C20000FFA069800889DF82310484305F04AFCC7
:104C30000699099AC2F8EC000998D0F8EC000988A6
:104C40009DF823205143FBF75EFC079A099B03F173
:104C50003800197BD3F8EC3003F0F2F99DF822000C
:104C600010B3FFE745F2AE20C2F2000005900088C5
:104C70009DF82210484305F025FC0599099AC2F8D1
:104C8000F0000998D0F8F00009889DF822205143DF
:104C9000FBF739FC099A02F14000517BD2F8F03061
:104CA000012203F0CDF9FFE745F2AE20C2F2000089
:104CB000049000889DF82110484305F003FC0499F6
:104CC000099AC2F8F4000998D0F8F40009889DF810
:104CD00021205143FBF717FC099A02F14800917B10
:104CE000D2F8F430012203F0ABF9049800889DF863
:104CF00023104843484305F0E5FB0499099AC2F89C
:104D0000F8000998D0F8F80009889DF8232051434D
:104D10005143FBF7F8FB099901F150000A7BD1F8E8
:104D2000F830114603F08CF9049800889DF82310A0
:104D30004843484305F0C6FB0499099AC2F8FC00B1
:104D40000998D0F8FC0009889DF82320514351436D
:104D5000FBF7D9FB099901F158000A7BD1F8FC3027
:104D6000114603F06DF9049800889DF8231048431C
:104D7000484305F0A7FB01460498099AC2F80011C0
:104D800000889DF823104843484305F09BFB049995
:104D9000099AC2F804010998D0F8000109889DF821
:104DA000232051435143FBF7AEFB04990998D0F8F7
:104DB000040109889DF8232051435143FBF7A3FBCD
:104DC000099901F160000A7BD1F80031114603F026
:104DD00037F9099901F168000A7BD1F804311146CD
:104DE00003F02EF99DF8220040B3FFE745F2AE2014
:104DF000C2F20000039000889DF8231048439DF8FC
:104E00002210484305F05EFB0399099AC2F8080195
:104E10000998D0F8080109889DF8232051439DF88E
:104E200022205143FBF76FFB099B03F17000197BB4
:104E30005A7BD3F8083103F003F9FFE745F2AE20BF
:104E4000C2F20000019000889DF8211048439DF8AF
:104E50002310484305F036FB01460198099AC2F831
:104E60000C1100889DF8231048439DF821104843F9
:104E700005F028FB0199099AC2F810010998D0F8A9
:104E80000C0109889DF8212051439DF823205143AE
:104E9000FBF739FB01990998D0F8100109889DF8B2
:104EA000232051439DF821205143FBF72CFB099B04
:104EB00003F178001A7B997BD3F80C3103F0C0F82A
:104EC000099B03F18000197B9A7BD3F8103103F022
:104ED000B7F8019800889DF823104843484305F02F
:104EE000F1FA0199099AC2F814010998D0F814014D
:104EF00009889DF8232051435143FBF704FB09998E
:104F000001F188000A7BD1F81431114603F098F8BA
:104F1000019800889DF821104843484305F0D2FAD3
:104F20000199099AC2F818010998D0F8180109885E
:104F30009DF8212051435143FBF7E5FA099901F10E
:104F400090008A7BD1F81831114603F079F8019866
:104F500000889DF8231048439DF82110484305F030
:104F6000B1FA0199099AC2F81C010998D0F81C01FC
:104F700009889DF8232051439DF821205143FBF7D8
:104F8000C2FA099B03F19800197B9A7BD3F81C3174
:104F900003F056F8019800880999097B4843484373
:104FA00005F090FA0199099AC2F82001099AD2F8FD
:104FB00020010988127B51435143FBF7A4FA019861
:104FC00000880999097B4843484305F07BFA019919
:104FD000099AC2F82401099AD2F824010988127B9F
:104FE00051435143FBF78FFA019800880999097BD7
:104FF0004843484305F066FA0199099AC2F8280126
:10500000099AD2F828010988127B51435143FBF7D2
:105010007AFA019800880999097B484305F052FA09
:105020000199099AC2F82C01099AD2F82C01098831
:10503000127B5143FBF767FA019800880999097BB5
:10504000484305F03FFA0199099AC2F83001099ADC
:10505000D2F82C010988127B5143FBF754FA0999C5
:1050600001F1A0000A7BD1F82031114602F0E8FFDF
:10507000099901F1A8000A7BD1F82431114602F008
:10508000DFFF099901F1B0000A7BD1F82831114600
:1050900002F0D6FF099A02F1B800117BD2F82C3148
:1050A0000122029202F0CCFF029A099B03F1C00098
:1050B000197BD3F8303102F0C3FF0999002081F841
:1050C0002800099981F82900099981F82A0009998D
:1050D00081F82B00099981F82C000AB080BD0000EE
:1050E00080B582B001900198C07B20B1FFE70198A4
:1050F000FEF7B2FB16E0019BD3F8F400596845F2C5
:10510000AE22C2F20002009212889B7B5A43FBF748
:105110009EF90099019A50680988927B5143FBF7E8
:10512000F2F9FFE7019BD3F8F000996845F2AE224F
:10513000C2F2000212885B7B5A43FBF788F902B087
:1051400080BD000080B582B00190019890F82C00DD
:10515000B0BBFFE70199B1F89800A1F8A800019948
:10516000B1F87A00A1F8AA000199B1F8A800A1F855
:10517000B0000199B1F85A00A1F8B200019A02F109
:10518000980002F17801A83203F052FA019981F8EF
:10519000C800019A02F1A80002F15801B03203F0F0
:1051A00047FA019981F8C800019A02F1580002F10A
:1051B000B001503203F0C4FA019981F8C800FFE74A
:1051C00002B080BD80B582B00190019890F82900AE
:1051D000A8BBFFE7019901F16000683103F0E4FA30
:1051E000019981F8C800019A02F1600002F15001B2
:1051F000583203F01DFA019981F8C8000199B1F8FD
:105200005800A1F8A8000199B1F86A00A1F8AA0015
:10521000019A02F1580002F16801A83203F008FA7D
:10522000019981F8C800019A02F1A80002F18801F1
:10523000583202F0D1FE019981F8C800FFE702B0B0
:1052400080BD000080B582B00190019890F82A00DE
:10525000002872D1FFE7019901F17800803103F055
:10526000A3FA019981F8C8000199B1F87800A1F872
:10527000A8000199B1F85A00A1F8AA00019A02F118
:10528000780002F15801A83203F0D2F9019981F8AF
:10529000C8000199B1F8A800A1F8B0000199B1F8CF
:1052A0008200A1F8B200019A02F1A80002F1800187
:1052B000B03203F0BDF9019981F8C8000199B1F845
:1052C0009000A1F8A0000199B1F89200A1F8A20005
:1052D000019A02F1B00002F19001A03202F07CFECE
:1052E000019981F8C800019901F1A000B03102F0E4
:1052F000BBFE019981F8C8000199B1F85800A1F8E6
:10530000A8000199B1F88200A1F8AA00019A02F15F
:10531000580002F18001A83203F08AF9019981F85E
:10532000C800019A02F1A80002F1B001983203F01E
:105330007FF9019981F8C800FFE702B080BD000045
:1053400080B584B003900398FFF7CAFE0398D0F8A5
:10535000CC0028B1FFE70398D0F8CC108847FFE7CE
:10536000039800F0B5F80398D0F8D00028B1FFE713
:105370000398D0F8D0108847FFE70398FFF722FF83
:105380000398D0F8D40028B1FFE70398D0F8D410E0
:105390008847FFE70398007C20B9FFE70398C07BAC
:1053A000F0B9FFE70398FFF74DFF0398D0F8D80056
:1053B00028B1FFE70398D0F8D8108847FFE7039893
:1053C00000F0D8F80398D0F8DC0028B1FFE7039884
:1053D000D0F8DC108847FFE70398FFF7B3FE1BE027
:1053E000039BD3F8E800D3F8EC1045F2AE22C2F2EA
:1053F0000002019212881B7B5A43FBF728F8019A9E
:10540000039BD3F8F800D3F8FC1012881B7B5A4397
:105410005A43FBF71CF8FFE70398D0F8E00028B1E7
:10542000FFE70398D0F8E0108847FFE700208DF8E9
:105430000B00FFE79DF80B000399097B88422CDAEB
:10544000FFE70398D0F8F8209DF80B10037B11FBC1
:10545000031302EB830292ED000A006A00EB810065
:1054600090ED001AB4EE410AF1EE10FA0EDAFFE701
:10547000039B186A9DF80B2050F82200D3F8F8100F
:105480001B7B12FB032241F82200FFE7FFE79DF898
:105490000B0001308DF80B00CCE7039B1868D3F8A4
:1054A000E81045F2AE22C2F2000212881B7B5A437A
:1054B000FAF7CDFF0398D0F8E40028B1FFE703988E
:1054C000D0F8E4108847FFE70398006804B080BD77
:1054D00080B582B00190019890F82800002846D14C
:1054E000FFE70198407B012834DBFFE70199087B47
:1054F000A1F8B800019901200090A1F8BA00019A22
:1055000002F1600002F13001B83203F091F8014677
:105510000098019A82F8C810019A117BA2F8C01075
:105520000199A1F8C200019A02F1700002F1400154
:10553000C03203F07DF8019981F8C800019A02F1A8
:10554000B80002F1C001383202F046FD019981F83D
:10555000C8000BE0019A02F1600002F1300138321C
:1055600003F066F8019981F8C800FFE7FFE702B091
:1055700080BD000080B582B00190019890F82B00AA
:1055800000284BD1FFE70199B1F87800A1F8B800E5
:10559000019901200090A1F8BA00019A02F1780067
:1055A00002F13801B83203F043F801460098019A3D
:1055B00082F8C810019AB2F84810A2F8C0100199F8
:1055C000A1F8C200019A02F1480002F1B801C0320C
:1055D00003F0B6F801460098019A82F8C810019AC3
:1055E000B2F89810A2F8B8100199A1F8BA00019A7F
:1055F00002F1980002F1C001B83203F019F80199E4
:1056000081F8C800019A02F1380002F1B801303285
:1056100002F0E2FC019981F8C800FFE702B080BD0A
:1056200080B586B0FFE70020059043F63000C4F255
:105630000200016841F400110160006800F40010EC
:1056400005900598FFE70E200090052102910022A9
:105650000392FCF74DF90098FCF740F90299039A80
:105660000F200190FCF744F90198FCF737F90299F3
:10567000039A10200490FCF73BF90498FCF72EF9EC
:1056800006B080BD80B582B046F64570C0F6000019
:105690004DF2F812C0F600020021019103F0ECFD7A
:1056A000019940F28C52C2F20002106046F6557029
:1056B000C0F600004DF21C22C0F6000203F0DCFD33
:1056C00042F2B071C2F20001086002B080BD000079
:1056D00080B594B0002013901290119010900F900C
:1056E000FFE700200E9043F63000C4F2020001688C
:1056F00041F080010160006800F080000E900E987B
:10570000FFE7FFE700200D9043F63000C4F20200EF
:10571000016841F004010160006800F004000D9090
:105720000D98FFE7FFE700200C9043F63000C4F22D
:105730000200016841F002010160006800F002000F
:105740000C900C98FFE7FFE700200B9043F6300029
:10575000C4F20200016841F001010160006800F03C
:1057600001000B900B98FFE7FFE700200A9043F63B
:105770003000C4F20200016841F0080101600068D5
:1057800000F008000A900A98FFE740F60000C4F213
:10579000020002904021019100220792FBF7B2FF24
:1057A000079A0020C4F2020004904FF48051039144
:1057B000FBF7A8FF079A40F60040C4F202000890E9
:1057C00004210591FBF79EFF019A029807990F9219
:1057D000012206921092119112910FA90991FBF7E3
:1057E000B5FDDDF80CC00498069B079A0999CDF821
:1057F0003CC0109311921292FBF7A8FDDDF814C083
:10580000069B079A08980999CDF83CC0109311920D
:105810001292FBF79BFD14B080BD000080B582B0F2
:1058200040F2C860C2F20000019043F60001C4F2E9
:10583000000101604FF48271416000218160C1600C
:1058400002220261012242614FF400728261202231
:10585000C2610162416281620A21C162FCF7CEFE2F
:1058600018B1FFE7FBF7B8F9FFE702B080BD000011
:1058700080B58AB0002100910991089107910691A5
:105880000591049103910291019140F26870C2F276
:10589000000040F20042C4F20002026041608160F8
:1058A0006822C26001618161FDF722FD18B1FFE746
:1058B000FBF792F9FFE700200890099040F268702A
:1058C000C2F2000008A9FDF7C1F918B1FFE7FBF724
:1058D00083F9FFE76020019000200290039005907B
:1058E00040F26870C2F2000001A90422FDF75EFCDC
:1058F00018B1FFE7FBF770F9FFE740F26870C2F2FA
:105900000000FDF719FC0AB080BD0000FFE7FEE7CC
:1059100080B58CB00B908DED0A0ACDED090A8DEDA6
:10592000081ACDED071A8DED062ACDED052A8DED6D
:10593000043ACDED033A8DED024A019100920198AF
:10594000E0B1FFE7019890ED001A9DED070A30EEF7
:10595000410A8DED070A019890ED011A9DED060AA6
:1059600030EE410A8DED060A019890ED021A9DED88
:10597000050A30EE410A8DED050AFFE70B989DED13
:10598000070ADDED060A9DED051ADDED0A1A9DED0B
:10599000092ADDED082A9FED0C4AB0EE443AF0EEFC
:1059A000443A00F0ADF80B9800F036F80B98806A96
:1059B000009908600B98406A009948600B98C06A8B
:1059C000009988600CB080BD0000000082B001909A
:1059D0008DED000A019900200860019A4FF07E5178
:1059E0005160019988600199C86001990861019925
:1059F0004861019988610199C861019981F8300075
:105A00009DED001AB7EE000A80EE010A019880EDC4
:105A1000080A02B07047000080B584B00390039874
:105A200090ED010A90ED021A90ED032A90ED043AF0
:105A300022EE033A20EE010A30EE030A21EE013A8B
:105A4000B6EE001A8DED011A31EE431A22EE022A4B
:105A500071EE420A243001F0C3FF039890ED090A69
:105A60009FED261A8DED021A20EE010A80ED090A3B
:105A7000039890ED010A90ED021A90ED033A90ED33
:105A8000042A20EE030A21EE021A30EE410A30EE1B
:105A9000000A06F047FA9DED011A9DED022A20EE5C
:105AA000020A039880ED0A0A039890ED014A90EDEE
:105AB000020A90ED033A90ED042A24EE024A20EE09
:105AC000030A30EE040A23EE033A31EE431A22EEC3
:105AD000022A71EE420A2C3001F082FF9DED021A7B
